:1000000007C1000033C1000031C100002FC1000052
:100010002DC100002BC1000029C1000027C1000034
:1000200025C1000023C1000021C100001FC1000044
:100030001DC100001BC1000019C1000017C1000054
:1000400015C1000013C1000011C100000FC1000064
:100050000DC100000BC1000009C1000074C3000005
:1000600005C1000003C1000001C10000FFC0000085
:10007000FDC00000FBC00000F9C00000F7C0000098
:10008000F5C00000F3C00000F1C00000EFC00000A8
:10009000EDC00000EBC00000E9C00000E7C00000B8
:1000A000E5C00000E3C00000E1C00000DFC00000C8
:1000B000DDC00000DBC00000D9C00000D7C00000D8
:1000C000D5C00000D3C00000D1C00000CFC00000E8
:1000D000CDC00000CBC00000C9C00000C7C00000F8
:1000E000C5C00000AF01B201A101A501A901E9014C
:1000F000B601BA01C001C401C801CE01D201D601C6
:10010000E901DC01E001E40100000A0B02090C0D29
:100110000E080703040100000000000000000000BA
:1001200000000000000000000000000000000000CF
:10013000000000001211100000000000000000008C
:1001400000000000000000000000000000000000AF
:100150002200250028002B002E003100340002016F
:100160000000050108010B01000021002400270008
:100170002A002D00300033000101000004010701B6
:100180000A0105050505070508080808020202021C
:100190000A0A080804040404010101010101010123
:1001A0000303030303030303040707070C0C0C0CEE
:1001B0000C0C0C0C020202020606060606060606D7
:1001C0000B0B0B0B0B0B0B0B010210202008081064
:1001D00020401020408002010201080402010102B7
:1001E0000408102040808040201008040201800490
:1001F00002018040201008040201080402010102EB
:1002000004081020408001020408102040804B05A3
:1002100011241FBECFEFD1E2DEBFCDBF00E00CBF87
:1002200012E0A0E0B2E0EEEEFAE000E00BBF02C0A8
:1002300007900D92A233B107D9F722E0A2E3B2E012
:1002400001C01D92A335B207E1F711E0C8E0D1E08B
:1002500000E005C021970109802FFE013AD4C73084
:10026000D10780E00807B1F7B8D23FC4C9CE90E00B
:10027000FC01E853FE4F2491FC01EE57FE4F8491A0
:10028000882399F090E0880F991FFC01E859FE4FF0
:10029000A591B491FC01E25BFE4F859194918FB7DB
:1002A000F894EC91E22BEC938FBF0895CF92DF92FC
:1002B000EF92FF920F931F93CF93DF936C017A011C
:1002C0008B01C0E0D0E0CE15DF0589F0D8016D913B
:1002D0008D01D601ED91FC910190F081E02DC601D8
:1002E0001995892B11F47E0102C02196ECCFC7012C
:1002F000DF91CF911F910F91FF90EF90DF90CF9002
:100300000895362F90E0FC01E85FFE4F4491FC0118
:10031000E853FE4F2491FC01EE57FE4F9491992330
:1003200009F46AC0442309F454C050E0FA0131973B
:10033000E231F10508F04DC08827EE58FF4F8F4F8E
:10034000C8C3809180008F7707C0809180008F7D27
:1003500003C080918000877F809380003AC084B57D
:100360008F7702C084B58F7D84BD33C08091B0008B
:100370008F7703C08091B0008F7D8093B00029C03B
:10038000809190008F7707C0809190008F7D03C08F
:1003900080919000877F809390001BC08091A00087
:1003A0008F7707C08091A0008F7D03C08091A0004F
:1003B000877F8093A0000DC0809120018F7707C0B8
:1003C000809120018F7D03C080912001877F8093E1
:1003D0002001E92FF0E0EE0FFF1FE25BFE4FA59139
:1003E000B4918FB7F894EC91311103C020952E236E
:1003F00001C02E2B2C938FBF08953FB7F8948091A6
:10040000370290913802A0913902B0913A0226B594
:10041000A89B05C02F3F19F00196A11DB11D3FBF3C
:10042000BA2FA92F982F8827820F911DA11DB11DCA
:10043000BC01CD0142E0660F771F881F991F4A95C6
:10044000D1F708958F929F92AF92BF92CF92DF9291
:10045000EF92FF92D2DF4B015C0188EEC82E83E061
:10046000D82EE12CF12CC9DFDC01CB0188199909C8
:10047000AA09BB09883E9340A105B10558F021E0C7
:10048000C21AD108E108F10888EE880E83E0981EB0
:10049000A11CB11CC114D104E104F10421F7FF90A7
:1004A000EF90DF90CF90BF90AF909F908F90089586
:1004B000CF93DF93EC0160E08E8123DF61E08E81DA
:1004C00020DF60E08E811DDF8BE891E00197F1F77E
:1004D000DF91CF910895CF92DF92EF92FF920F9329
:1004E0001F93CF93DF937C016C0187E0C80ED11C72
:1004F000C0E0D0E0062F10E0B8010C2E02C07595C8
:1005000067950A94E2F76170F60181916F01F9DE57
:100510002196C430D10581F7C701DF91CF911F919A
:100520000F91FF90EF90DF90CF90C2CFCF92DF92EC
:10053000EF92FF920F931F93CF93DF93EC01F62E70
:10054000642F8C81DEDE8D818F3F11F060E0D9DE7B
:100550008F850F2D10E084FF23C06E0187E0C80E49
:10056000D11CE12CF12CB8010E2C02C075956795B9
:100570000A94E2F76170F60181916F01C2DEFFEF2C
:10058000EF1AFF0A88E0E816F10469F7CE01DF915F
:10059000CF911F910F91FF90EF90DF90CF9088CF78
:1005A000B80184E0759567958A95E1F7CE0193DFF0
:1005B0006F2DCE01DF91CF911F910F91FF90EF90A2
:1005C000DF90CF9088CF41E0B1DF81E090E00895E7
:1005D00040E0ACCF643008F063E090914E026917C0
:1005E00010F06FEF690FE62FF0E0E55CFD4F9489A6
:1005F000682F690F60688BE392E0EACF61E0E8DF83
:100600008BE39FE10197F1F70895EF92FF920F932B
:100610001F93CF93DF93EC01623018F08F858860D1
:100620008F876B8B1C8A80E48D8B80E18E8B80E5BD
:100630008F8B8C811CDE8D818F3F09F018DE8E81BF
:1006400016DE7E0187E0E80EF11C00E010E08F85E9
:1006500084FD03C084E090E002C088E090E00817C9
:1006600019073CF4F70181917F0101DE0F5F1F4FF5
:10067000EECF8BE39DE00197F1F760E08C8141DEE6
:1006800060E08E813EDE8D818F3F11F060E039DECB
:100690006F8564FD19C063E0CE011DDF0BE416E435
:1006A000C8010197F1F763E0CE0115DFC80101979A
:1006B000F1F763E0CE010FDF83E592E00197F1F7F8
:1006C00062E0CE0108DF13C06062CE0181DF8BE4FF
:1006D00096E40197F1F76F856062CE0179DF83E5DB
:1006E00092E00197F1F76F856062CE0171DF6F854F
:1006F0006062CE016DDF84E0888B6CE0CE0168DF44
:10070000CE017CDF82E0898B66E0CE01DF91CF9164
:100710001F910F91FF90EF905BCF089580E090E0E4
:100720000895009761F0FC0101900020E9F73197EE
:10073000AF01481B590BBC018BE392E0B7CD80E0C1
:1007400090E00895CED11F920F920FB60F92112410
:100750002F933F938F939F93AF93BF9380913302D7
:1007600090913402A0913502B0913602309132025C
:1007700023E0230F2D3720F40196A11DB11D05C0E4
:1007800026E8230F0296A11DB11D2093320280930B
:10079000330290933402A0933502B09336028091D5
:1007A000370290913802A0913902B0913A02019635
:1007B000A11DB11D8093370290933802A093390296
:1007C000B0933A02BF91AF919F918F913F912F913A
:1007D0000F900FBE0F901F901895789484B582608B
:1007E00084BD84B5816084BD85B5826085BD85B5D5
:1007F000816085BD80916E00816080936E00109253
:1008000081008091810082608093810080918100CD
:10081000816080938100809180008160809380005E
:100820008091B10084608093B1008091B0008160BC
:100830008093B000809191008260809391008091BC
:1008400091008160809391008091900081608093FD
:1008500090008091A10082608093A1008091A1000E
:1008600081608093A1008091A00081608093A000AE
:10087000809121018260809321018091210181601A
:1008800080932101809120018160809320018091DB
:100890007A00846080937A0080917A0082608093ED
:1008A0007A0080917A00816080937A0080917A004A
:1008B000806880937A001092C10062E08BE392E03E
:1008C000A4DE68E48BE392E083DEC0E0D2E06991CD
:1008D0008BE392E078DE82E0C830D807C1F78BE383
:1008E00092E08CDE60E080E075DE61E08BE392E018
:1008F0006ADE61E08BE392E066DE61E08BE392E02A
:1009000062DE84E192E00DDF61E08BE392E05BDE8A
:1009100061E08BE392E057DE61E08BE392E053DE2F
:1009200061E080E057DE61E08BE392E04CDE61E065
:100930008BE392E048DE8DE192E0F3DE61E08BE351
:1009400092E041DE61E08BE392E03DDE7BDDC0E0E2
:10095000D0E060E080E03EDE61E08BE392E033DEF9
:1009600061E08BE392E02FDE85E292E0DADE61E087
:100970008BE392E028DE61E08BE392E024DE61E02D
:1009800080E028DE61E08BE392E01DDE5BDD61E06C
:1009900081E020DE61E08BE392E015DE53DD61E073
:1009A00082E018DE61E08BE392E00DDE4BDD61E07A
:1009B00083E010DE61E08BE392E005DE43DD61E081
:1009C00084E008DE61E08BE392E0FDDD3BDD61E089
:1009D00085E000DE61E08BE392E0F5DD33DD61E090
:1009E00086E0F8DD61E08BE392E0EDDD2BDD61E098
:1009F00087E0F0DD61E08BE392E0E5DD23DD61E09F
:100A000088E0E8DD61E08BE392E0DDDD1BDD61E0A5
:100A100089E0E0DD61E08BE392E0D5DD13DD61E0AC
:100A20008AE0D8DD61E08BE392E0CDDD0BDD61E0B3
:100A30008BE0D0DD61E08BE392E0C5DD03DD61E0BA
:100A40008CE0C8DD61E08BE392E0BDDDFBDC61E0C2
:100A50008DE0C0DD61E08BE392E0B5DDF3DC61E0C9
:100A60008EE0B8DD61E08BE392E0ADDDEBDC61E0D0
:100A70008FE0B0DD61E08BE392E0A5DDE3DC61E0D7
:100A800080E0A8DD8BE392E0B9DD209709F461CF27
:100A90000E9400005ECFEBE3F2E0138212828CE052
:100AA00092E0918380838CE084838FEF85838BE059
:100AB00086838AE0878389E0808788E0818787E072
:100AC00082871386148615861686178661E0CF0105
:100AD0009CCDEE0FFF1F881F8BBF0790F691E02D76
:0E0AE000199481E090E0F89400C0F894FFCFE4
:100AEE00000A1F1F1F0E040000000000E302560143
:100AFE008E038D032053797374656D20002052652B
:100B0E00616479200053797374656D205265616458
:020B1E0079005C
:00000001FF
